{
  "_format": "hh-sol-artifact-1",
  "contractName": "AtomicFlashSwap",
  "sourceName": "contracts/AtomicFlashSwap.sol",
  "abi": [
    {
      "inputs": [
        {
          "internalType": "address",
          "name": "initialOwner",
          "type": "address"
        }
      ],
      "stateMutability": "nonpayable",
      "type": "constructor"
    },
    {
      "inputs": [
        {
          "internalType": "address",
          "name": "owner",
          "type": "address"
        }
      ],
      "name": "OwnableInvalidOwner",
      "type": "error"
    },
    {
      "inputs": [
        {
          "internalType": "address",
          "name": "account",
          "type": "address"
        }
      ],
      "name": "OwnableUnauthorizedAccount",
      "type": "error"
    },
    {
      "anonymous": false,
      "inputs": [
        {
          "indexed": true,
          "internalType": "address",
          "name": "tokenIn",
          "type": "address"
        },
        {
          "indexed": true,
          "internalType": "address",
          "name": "tokenOut",
          "type": "address"
        },
        {
          "indexed": false,
          "internalType": "uint256",
          "name": "amountIn",
          "type": "uint256"
        },
        {
          "indexed": false,
          "internalType": "uint256",
          "name": "amountOut",
          "type": "uint256"
        }
      ],
      "name": "FlashSwapExecuted",
      "type": "event"
    },
    {
      "anonymous": false,
      "inputs": [
        {
          "indexed": true,
          "internalType": "address",
          "name": "previousOwner",
          "type": "address"
        },
        {
          "indexed": true,
          "internalType": "address",
          "name": "newOwner",
          "type": "address"
        }
      ],
      "name": "OwnershipTransferred",
      "type": "event"
    },
    {
      "inputs": [
        {
          "internalType": "address",
          "name": "tokenIn",
          "type": "address"
        },
        {
          "internalType": "address",
          "name": "tokenOut",
          "type": "address"
        },
        {
          "internalType": "uint256",
          "name": "amountIn",
          "type": "uint256"
        },
        {
          "internalType": "uint256",
          "name": "amountOut",
          "type": "uint256"
        }
      ],
      "name": "flashSwap",
      "outputs": [],
      "stateMutability": "nonpayable",
      "type": "function"
    },
    {
      "inputs": [],
      "name": "owner",
      "outputs": [
        {
          "internalType": "address",
          "name": "",
          "type": "address"
        }
      ],
      "stateMutability": "view",
      "type": "function"
    },
    {
      "inputs": [],
      "name": "renounceOwnership",
      "outputs": [],
      "stateMutability": "nonpayable",
      "type": "function"
    },
    {
      "inputs": [
        {
          "internalType": "address",
          "name": "newOwner",
          "type": "address"
        }
      ],
      "name": "transferOwnership",
      "outputs": [],
      "stateMutability": "nonpayable",
      "type": "function"
    }
  ],
  "bytecode": "0x608060405234801561001057600080fd5b5060405161040a38038061040a83398101604081905261002f916100be565b806001600160a01b03811661005e57604051631e4fbdf760e01b81526000600482015260240160405180910390fd5b6100678161006e565b50506100ee565b600080546001600160a01b038381166001600160a01b0319831681178455604051919092169283917f8be0079c531659141344cd1fd0a4f28419497f9722a3daafe3b4186f6b6457e09190a35050565b6000602082840312156100d057600080fd5b81516001600160a01b03811681146100e757600080fd5b9392505050565b61030d806100fd6000396000f3fe608060405234801561001057600080fd5b506004361061004c5760003560e01c8063129c659a14610051578063715018a6146100665780638da5cb5b1461006e578063f2fde38b1461008d575b600080fd5b61006461005f366004610273565b6100a0565b005b610064610188565b600054604080516001600160a01b039092168252519081900360200190f35b61006461009b3660046102b5565b61019c565b600082116100e85760405162461bcd60e51b815260206004820152601060248201526f24b73b30b634b21030b6b7bab73a24b760811b60448201526064015b60405180910390fd5b6000811161012c5760405162461bcd60e51b8152602060048201526011602482015270125b9d985b1a5908185b5bdd5b9d13dd5d607a1b60448201526064016100df565b826001600160a01b0316846001600160a01b03167feb522d7113a16f7bad90f29d56bdca9ca3afac49dac59b7ce4d16ee0a0bee99b848460405161017a929190918252602082015260400190565b60405180910390a350505050565b6101906101da565b61019a6000610207565b565b6101a46101da565b6001600160a01b0381166101ce57604051631e4fbdf760e01b8152600060048201526024016100df565b6101d781610207565b50565b6000546001600160a01b0316331461019a5760405163118cdaa760e01b81523360048201526024016100df565b600080546001600160a01b038381166001600160a01b0319831681178455604051919092169283917f8be0079c531659141344cd1fd0a4f28419497f9722a3daafe3b4186f6b6457e09190a35050565b80356001600160a01b038116811461026e57600080fd5b919050565b6000806000806080858703121561028957600080fd5b61029285610257565b93506102a060208601610257565b93969395505050506040820135916060013590565b6000602082840312156102c757600080fd5b6102d082610257565b939250505056fea2646970667358221220eb7e630efcfcedb2e2b81a7f866235540b09dfb4c4a7504ac01dab0d14fec9d364736f6c63430008140033",
  "linkReferences": {},
  "deployedLinkReferences": {}
}