{
  "_format": "hh-sol-artifact-1",
  "contractName": "AtomicFlashSwap",
  "sourceName": "contracts/AtomicFlashSwap.sol",
  "abi": [
    {
      "inputs": [
        {
          "internalType": "address",
          "name": "initialOwner",
          "type": "address"
        }
      ],
      "stateMutability": "nonpayable",
      "type": "constructor"
    },
    {
      "inputs": [
        {
          "internalType": "address",
          "name": "owner",
          "type": "address"
        }
      ],
      "name": "OwnableInvalidOwner",
      "type": "error"
    },
    {
      "inputs": [
        {
          "internalType": "address",
          "name": "account",
          "type": "address"
        }
      ],
      "name": "OwnableUnauthorizedAccount",
      "type": "error"
    },
    {
      "anonymous": false,
      "inputs": [
        {
          "indexed": true,
          "internalType": "address",
          "name": "tokenIn",
          "type": "address"
        },
        {
          "indexed": true,
          "internalType": "address",
          "name": "tokenOut",
          "type": "address"
        },
        {
          "indexed": false,
          "internalType": "uint256",
          "name": "amountIn",
          "type": "uint256"
        },
        {
          "indexed": false,
          "internalType": "uint256",
          "name": "amountOut",
          "type": "uint256"
        }
      ],
      "name": "FlashSwapExecuted",
      "type": "event"
    },
    {
      "anonymous": false,
      "inputs": [
        {
          "indexed": true,
          "internalType": "address",
          "name": "previousOwner",
          "type": "address"
        },
        {
          "indexed": true,
          "internalType": "address",
          "name": "newOwner",
          "type": "address"
        }
      ],
      "name": "OwnershipTransferred",
      "type": "event"
    },
    {
      "inputs": [
        {
          "internalType": "address",
          "name": "tokenIn",
          "type": "address"
        },
        {
          "internalType": "address",
          "name": "tokenOut",
          "type": "address"
        },
        {
          "internalType": "uint256",
          "name": "amountIn",
          "type": "uint256"
        },
        {
          "internalType": "uint256",
          "name": "amountOut",
          "type": "uint256"
        }
      ],
      "name": "flashSwap",
      "outputs": [],
      "stateMutability": "nonpayable",
      "type": "function"
    },
    {
      "inputs": [],
      "name": "owner",
      "outputs": [
        {
          "internalType": "address",
          "name": "",
          "type": "address"
        }
      ],
      "stateMutability": "view",
      "type": "function"
    },
    {
      "inputs": [],
      "name": "renounceOwnership",
      "outputs": [],
      "stateMutability": "nonpayable",
      "type": "function"
    },
    {
      "inputs": [
        {
          "internalType": "address",
          "name": "newOwner",
          "type": "address"
        }
      ],
      "name": "transferOwnership",
      "outputs": [],
      "stateMutability": "nonpayable",
      "type": "function"
    }
  ],
  "bytecode": "0x608060405234801561001057600080fd5b506040516108b03803806108b0833981810160405281019061003291906101e2565b80600073ffffffffffffffffffffffffffffffffffffffff168173ffffffffffffffffffffffffffffffffffffffff16036100a55760006040517f1e4fbdf700000000000000000000000000000000000000000000000000000000815260040161009c919061021e565b60405180910390fd5b6100b4816100bb60201b60201c565b5050610239565b60008060009054906101000a900473ffffffffffffffffffffffffffffffffffffffff169050816000806101000a81548173ffffffffffffffffffffffffffffffffffffffff021916908373ffffffffffffffffffffffffffffffffffffffff1602179055508173ffffffffffffffffffffffffffffffffffffffff168173ffffffffffffffffffffffffffffffffffffffff167f8be0079c531659141344cd1fd0a4f28419497f9722a3daafe3b4186f6b6457e060405160405180910390a35050565b600080fd5b600073ffffffffffffffffffffffffffffffffffffffff82169050919050565b60006101af82610184565b9050919050565b6101bf816101a4565b81146101ca57600080fd5b50565b6000815190506101dc816101b6565b92915050565b6000602082840312156101f8576101f761017f565b5b6000610206848285016101cd565b91505092915050565b610218816101a4565b82525050565b6000602082019050610233600083018461020f565b92915050565b610668806102486000396000f3fe608060405234801561001057600080fd5b506004361061004c5760003560e01c8063129c659a14610051578063715018a61461006d5780638da5cb5b14610077578063f2fde38b14610095575b600080fd5b61006b60048036038101906100669190610453565b6100b1565b005b6100756101a4565b005b61007f6101b8565b60405161008c91906104c9565b60405180910390f35b6100af60048036038101906100aa91906104e4565b6101e1565b005b600082116100f4576040517f08c379a00000000000000000000000000000000000000000000000000000000081526004016100eb9061056e565b60405180910390fd5b60008111610137576040517f08c379a000000000000000000000000000000000000000000000000000000000815260040161012e906105da565b60405180910390fd5b8273ffffffffffffffffffffffffffffffffffffffff168473ffffffffffffffffffffffffffffffffffffffff167feb522d7113a16f7bad90f29d56bdca9ca3afac49dac59b7ce4d16ee0a0bee99b8484604051610196929190610609565b60405180910390a350505050565b6101ac610267565b6101b660006102ee565b565b60008060009054906101000a900473ffffffffffffffffffffffffffffffffffffffff16905090565b6101e9610267565b600073ffffffffffffffffffffffffffffffffffffffff168173ffffffffffffffffffffffffffffffffffffffff160361025b5760006040517f1e4fbdf700000000000000000000000000000000000000000000000000000000815260040161025291906104c9565b60405180910390fd5b610264816102ee565b50565b61026f6103b2565b73ffffffffffffffffffffffffffffffffffffffff1661028d6101b8565b73ffffffffffffffffffffffffffffffffffffffff16146102ec576102b06103b2565b6040517f118cdaa70000000000000000000000000000000000000000000000000000000081526004016102e391906104c9565b60405180910390fd5b565b60008060009054906101000a900473ffffffffffffffffffffffffffffffffffffffff169050816000806101000a81548173ffffffffffffffffffffffffffffffffffffffff021916908373ffffffffffffffffffffffffffffffffffffffff1602179055508173ffffffffffffffffffffffffffffffffffffffff168173ffffffffffffffffffffffffffffffffffffffff167f8be0079c531659141344cd1fd0a4f28419497f9722a3daafe3b4186f6b6457e060405160405180910390a35050565b600033905090565b600080fd5b600073ffffffffffffffffffffffffffffffffffffffff82169050919050565b60006103ea826103bf565b9050919050565b6103fa816103df565b811461040557600080fd5b50565b600081359050610417816103f1565b92915050565b6000819050919050565b6104308161041d565b811461043b57600080fd5b50565b60008135905061044d81610427565b92915050565b6000806000806080858703121561046d5761046c6103ba565b5b600061047b87828801610408565b945050602061048c87828801610408565b935050604061049d8782880161043e565b92505060606104ae8782880161043e565b91505092959194509250565b6104c3816103df565b82525050565b60006020820190506104de60008301846104ba565b92915050565b6000602082840312156104fa576104f96103ba565b5b600061050884828501610408565b91505092915050565b600082825260208201905092915050565b7f496e76616c696420616d6f756e74496e00000000000000000000000000000000600082015250565b6000610558601083610511565b915061056382610522565b602082019050919050565b600060208201905081810360008301526105878161054b565b9050919050565b7f496e76616c696420616d6f756e744f7574000000000000000000000000000000600082015250565b60006105c4601183610511565b91506105cf8261058e565b602082019050919050565b600060208201905081810360008301526105f3816105b7565b9050919050565b6106038161041d565b82525050565b600060408201905061061e60008301856105fa565b61062b60208301846105fa565b939250505056fea2646970667358221220337248673e75b9423b74fee35220e9ca019c2d7e1718d613b044e3d1b27db63a64736f6c63430008140033",
  "linkReferences": {},
  "deployedLinkReferences": {}
}