{
  "_format": "hh-sol-artifact-1",
  "contractName": "AgentCustomization",
  "sourceName": "contracts/AgentCustomization.sol",
  "abi": [
    {
      "inputs": [
        {
          "internalType": "address",
          "name": "initialOwner",
          "type": "address"
        },
        {
          "internalType": "uint256",
          "name": "_fibonacciBase",
          "type": "uint256"
        },
        {
          "internalType": "uint256",
          "name": "_exponentThreshold",
          "type": "uint256"
        },
        {
          "internalType": "uint256",
          "name": "_riskFactor",
          "type": "uint256"
        }
      ],
      "stateMutability": "nonpayable",
      "type": "constructor"
    },
    {
      "inputs": [
        {
          "internalType": "address",
          "name": "owner",
          "type": "address"
        }
      ],
      "name": "OwnableInvalidOwner",
      "type": "error"
    },
    {
      "inputs": [
        {
          "internalType": "address",
          "name": "account",
          "type": "address"
        }
      ],
      "name": "OwnableUnauthorizedAccount",
      "type": "error"
    },
    {
      "anonymous": false,
      "inputs": [
        {
          "indexed": true,
          "internalType": "address",
          "name": "previousOwner",
          "type": "address"
        },
        {
          "indexed": true,
          "internalType": "address",
          "name": "newOwner",
          "type": "address"
        }
      ],
      "name": "OwnershipTransferred",
      "type": "event"
    },
    {
      "anonymous": false,
      "inputs": [
        {
          "indexed": false,
          "internalType": "uint256",
          "name": "fibonacciBase",
          "type": "uint256"
        },
        {
          "indexed": false,
          "internalType": "uint256",
          "name": "exponentThreshold",
          "type": "uint256"
        },
        {
          "indexed": false,
          "internalType": "uint256",
          "name": "riskFactor",
          "type": "uint256"
        }
      ],
      "name": "ParametersUpdated",
      "type": "event"
    },
    {
      "inputs": [],
      "name": "exponentThreshold",
      "outputs": [
        {
          "internalType": "uint256",
          "name": "",
          "type": "uint256"
        }
      ],
      "stateMutability": "view",
      "type": "function"
    },
    {
      "inputs": [],
      "name": "fibonacciBase",
      "outputs": [
        {
          "internalType": "uint256",
          "name": "",
          "type": "uint256"
        }
      ],
      "stateMutability": "view",
      "type": "function"
    },
    {
      "inputs": [],
      "name": "owner",
      "outputs": [
        {
          "internalType": "address",
          "name": "",
          "type": "address"
        }
      ],
      "stateMutability": "view",
      "type": "function"
    },
    {
      "inputs": [],
      "name": "renounceOwnership",
      "outputs": [],
      "stateMutability": "nonpayable",
      "type": "function"
    },
    {
      "inputs": [],
      "name": "riskFactor",
      "outputs": [
        {
          "internalType": "uint256",
          "name": "",
          "type": "uint256"
        }
      ],
      "stateMutability": "view",
      "type": "function"
    },
    {
      "inputs": [
        {
          "internalType": "address",
          "name": "newOwner",
          "type": "address"
        }
      ],
      "name": "transferOwnership",
      "outputs": [],
      "stateMutability": "nonpayable",
      "type": "function"
    },
    {
      "inputs": [
        {
          "internalType": "uint256",
          "name": "_fibonacciBase",
          "type": "uint256"
        },
        {
          "internalType": "uint256",
          "name": "_exponentThreshold",
          "type": "uint256"
        },
        {
          "internalType": "uint256",
          "name": "_riskFactor",
          "type": "uint256"
        }
      ],
      "name": "updateParameters",
      "outputs": [],
      "stateMutability": "nonpayable",
      "type": "function"
    }
  ],
  "bytecode": "0x608060405234801561001057600080fd5b506040516103e23803806103e283398101604081905261002f916100ca565b836001600160a01b03811661005e57604051631e4fbdf760e01b81526000600482015260240160405180910390fd5b6100678161007a565b5060019290925560025560035550610115565b600080546001600160a01b038381166001600160a01b0319831681178455604051919092169283917f8be0079c531659141344cd1fd0a4f28419497f9722a3daafe3b4186f6b6457e09190a35050565b600080600080608085870312156100e057600080fd5b84516001600160a01b03811681146100f757600080fd5b60208601516040870151606090970151919890975090945092505050565b6102be806101246000396000f3fe608060405234801561001057600080fd5b506004361061007d5760003560e01c8063798eec941161005b578063798eec94146100b15780638da5cb5b146100ba578063f2fde38b146100d5578063f76d50ad146100e857600080fd5b806304c46c1314610082578063715018a61461009e5780637281412d146100a8575b600080fd5b61008b60035481565b6040519081526020015b60405180910390f35b6100a66100fb565b005b61008b60025481565b61008b60015481565b6000546040516001600160a01b039091168152602001610095565b6100a66100e336600461022c565b61010f565b6100a66100f636600461025c565b610152565b6101036101af565b61010d60006101dc565b565b6101176101af565b6001600160a01b03811661014657604051631e4fbdf760e01b8152600060048201526024015b60405180910390fd5b61014f816101dc565b50565b61015a6101af565b60018390556002829055600381905560408051848152602081018490529081018290527f4dd522c050b46ef5e852ea87e7cd136b049dcb37740ad38386fbbb5cd30aa9249060600160405180910390a1505050565b6000546001600160a01b0316331461010d5760405163118cdaa760e01b815233600482015260240161013d565b600080546001600160a01b038381166001600160a01b0319831681178455604051919092169283917f8be0079c531659141344cd1fd0a4f28419497f9722a3daafe3b4186f6b6457e09190a35050565b60006020828403121561023e57600080fd5b81356001600160a01b038116811461025557600080fd5b9392505050565b60008060006060848603121561027157600080fd5b50508135936020830135935060409092013591905056fea2646970667358221220883ba001e10ed7096ff23572c69b1e4a54c99d719ac5afcc653b3608604df11564736f6c63430008140033",
  "linkReferences": {},
  "deployedLinkReferences": {}
}