{
  "_format": "hh-sol-artifact-1",
  "contractName": "AgentCustomization",
  "sourceName": "contracts/AgentCustomization.sol",
  "abi": [
    {
      "inputs": [
        {
          "internalType": "address",
          "name": "initialOwner",
          "type": "address"
        },
        {
          "internalType": "uint256",
          "name": "_fibonacciBase",
          "type": "uint256"
        },
        {
          "internalType": "uint256",
          "name": "_exponentThreshold",
          "type": "uint256"
        },
        {
          "internalType": "uint256",
          "name": "_riskFactor",
          "type": "uint256"
        }
      ],
      "stateMutability": "nonpayable",
      "type": "constructor"
    },
    {
      "inputs": [
        {
          "internalType": "address",
          "name": "owner",
          "type": "address"
        }
      ],
      "name": "OwnableInvalidOwner",
      "type": "error"
    },
    {
      "inputs": [
        {
          "internalType": "address",
          "name": "account",
          "type": "address"
        }
      ],
      "name": "OwnableUnauthorizedAccount",
      "type": "error"
    },
    {
      "anonymous": false,
      "inputs": [
        {
          "indexed": true,
          "internalType": "address",
          "name": "previousOwner",
          "type": "address"
        },
        {
          "indexed": true,
          "internalType": "address",
          "name": "newOwner",
          "type": "address"
        }
      ],
      "name": "OwnershipTransferred",
      "type": "event"
    },
    {
      "anonymous": false,
      "inputs": [
        {
          "indexed": false,
          "internalType": "uint256",
          "name": "fibonacciBase",
          "type": "uint256"
        },
        {
          "indexed": false,
          "internalType": "uint256",
          "name": "exponentThreshold",
          "type": "uint256"
        },
        {
          "indexed": false,
          "internalType": "uint256",
          "name": "riskFactor",
          "type": "uint256"
        }
      ],
      "name": "ParametersUpdated",
      "type": "event"
    },
    {
      "inputs": [],
      "name": "exponentThreshold",
      "outputs": [
        {
          "internalType": "uint256",
          "name": "",
          "type": "uint256"
        }
      ],
      "stateMutability": "view",
      "type": "function"
    },
    {
      "inputs": [],
      "name": "fibonacciBase",
      "outputs": [
        {
          "internalType": "uint256",
          "name": "",
          "type": "uint256"
        }
      ],
      "stateMutability": "view",
      "type": "function"
    },
    {
      "inputs": [],
      "name": "owner",
      "outputs": [
        {
          "internalType": "address",
          "name": "",
          "type": "address"
        }
      ],
      "stateMutability": "view",
      "type": "function"
    },
    {
      "inputs": [],
      "name": "renounceOwnership",
      "outputs": [],
      "stateMutability": "nonpayable",
      "type": "function"
    },
    {
      "inputs": [],
      "name": "riskFactor",
      "outputs": [
        {
          "internalType": "uint256",
          "name": "",
          "type": "uint256"
        }
      ],
      "stateMutability": "view",
      "type": "function"
    },
    {
      "inputs": [
        {
          "internalType": "address",
          "name": "newOwner",
          "type": "address"
        }
      ],
      "name": "transferOwnership",
      "outputs": [],
      "stateMutability": "nonpayable",
      "type": "function"
    },
    {
      "inputs": [
        {
          "internalType": "uint256",
          "name": "_fibonacciBase",
          "type": "uint256"
        },
        {
          "internalType": "uint256",
          "name": "_exponentThreshold",
          "type": "uint256"
        },
        {
          "internalType": "uint256",
          "name": "_riskFactor",
          "type": "uint256"
        }
      ],
      "name": "updateParameters",
      "outputs": [],
      "stateMutability": "nonpayable",
      "type": "function"
    }
  ],
  "bytecode": "0x608060405234801561001057600080fd5b5060405161087138038061087183398181016040528101906100329190610230565b83600073ffffffffffffffffffffffffffffffffffffffff168173ffffffffffffffffffffffffffffffffffffffff16036100a55760006040517f1e4fbdf700000000000000000000000000000000000000000000000000000000815260040161009c91906102a6565b60405180910390fd5b6100b4816100d360201b60201c565b50826001819055508160028190555080600381905550505050506102c1565b60008060009054906101000a900473ffffffffffffffffffffffffffffffffffffffff169050816000806101000a81548173ffffffffffffffffffffffffffffffffffffffff021916908373ffffffffffffffffffffffffffffffffffffffff1602179055508173ffffffffffffffffffffffffffffffffffffffff168173ffffffffffffffffffffffffffffffffffffffff167f8be0079c531659141344cd1fd0a4f28419497f9722a3daafe3b4186f6b6457e060405160405180910390a35050565b600080fd5b600073ffffffffffffffffffffffffffffffffffffffff82169050919050565b60006101c78261019c565b9050919050565b6101d7816101bc565b81146101e257600080fd5b50565b6000815190506101f4816101ce565b92915050565b6000819050919050565b61020d816101fa565b811461021857600080fd5b50565b60008151905061022a81610204565b92915050565b6000806000806080858703121561024a57610249610197565b5b6000610258878288016101e5565b94505060206102698782880161021b565b935050604061027a8782880161021b565b925050606061028b8782880161021b565b91505092959194509250565b6102a0816101bc565b82525050565b60006020820190506102bb6000830184610297565b92915050565b6105a1806102d06000396000f3fe608060405234801561001057600080fd5b506004361061007d5760003560e01c8063798eec941161005b578063798eec94146100c85780638da5cb5b146100e6578063f2fde38b14610104578063f76d50ad146101205761007d565b806304c46c1314610082578063715018a6146100a05780637281412d146100aa575b600080fd5b61008a61013c565b60405161009791906103e0565b60405180910390f35b6100a8610142565b005b6100b2610156565b6040516100bf91906103e0565b60405180910390f35b6100d061015c565b6040516100dd91906103e0565b60405180910390f35b6100ee610162565b6040516100fb919061043c565b60405180910390f35b61011e60048036038101906101199190610488565b61018b565b005b61013a600480360381019061013591906104e1565b610211565b005b60035481565b61014a610274565b61015460006102fb565b565b60025481565b60015481565b60008060009054906101000a900473ffffffffffffffffffffffffffffffffffffffff16905090565b610193610274565b600073ffffffffffffffffffffffffffffffffffffffff168173ffffffffffffffffffffffffffffffffffffffff16036102055760006040517f1e4fbdf70000000000000000000000000000000000000000000000000000000081526004016101fc919061043c565b60405180910390fd5b61020e816102fb565b50565b610219610274565b8260018190555081600281905550806003819055507f4dd522c050b46ef5e852ea87e7cd136b049dcb37740ad38386fbbb5cd30aa92460015460025460035460405161026793929190610534565b60405180910390a1505050565b61027c6103bf565b73ffffffffffffffffffffffffffffffffffffffff1661029a610162565b73ffffffffffffffffffffffffffffffffffffffff16146102f9576102bd6103bf565b6040517f118cdaa70000000000000000000000000000000000000000000000000000000081526004016102f0919061043c565b60405180910390fd5b565b60008060009054906101000a900473ffffffffffffffffffffffffffffffffffffffff169050816000806101000a81548173ffffffffffffffffffffffffffffffffffffffff021916908373ffffffffffffffffffffffffffffffffffffffff1602179055508173ffffffffffffffffffffffffffffffffffffffff168173ffffffffffffffffffffffffffffffffffffffff167f8be0079c531659141344cd1fd0a4f28419497f9722a3daafe3b4186f6b6457e060405160405180910390a35050565b600033905090565b6000819050919050565b6103da816103c7565b82525050565b60006020820190506103f560008301846103d1565b92915050565b600073ffffffffffffffffffffffffffffffffffffffff82169050919050565b6000610426826103fb565b9050919050565b6104368161041b565b82525050565b6000602082019050610451600083018461042d565b92915050565b600080fd5b6104658161041b565b811461047057600080fd5b50565b6000813590506104828161045c565b92915050565b60006020828403121561049e5761049d610457565b5b60006104ac84828501610473565b91505092915050565b6104be816103c7565b81146104c957600080fd5b50565b6000813590506104db816104b5565b92915050565b6000806000606084860312156104fa576104f9610457565b5b6000610508868287016104cc565b9350506020610519868287016104cc565b925050604061052a868287016104cc565b9150509250925092565b600060608201905061054960008301866103d1565b61055660208301856103d1565b61056360408301846103d1565b94935050505056fea26469706673582212203793b4868a172d84da887330d7f3f304bc3241d9750f74ce2b6cf6a247372ffa64736f6c63430008140033",
  "linkReferences": {},
  "deployedLinkReferences": {}
}